{
  "contractName": "Voting",
  "abi": [
    {
      "constant": true,
      "inputs": [
        {
          "name": "",
          "type": "uint256"
        }
      ],
      "name": "candidates",
      "outputs": [
        {
          "name": "description",
          "type": "string"
        },
        {
          "name": "voteCount",
          "type": "uint256"
        }
      ],
      "payable": false,
      "stateMutability": "view",
      "type": "function"
    },
    {
      "constant": true,
      "inputs": [],
      "name": "workflowStatus",
      "outputs": [
        {
          "name": "",
          "type": "uint8"
        }
      ],
      "payable": false,
      "stateMutability": "view",
      "type": "function"
    },
    {
      "constant": true,
      "inputs": [
        {
          "name": "",
          "type": "address"
        }
      ],
      "name": "voters",
      "outputs": [
        {
          "name": "isRegistered",
          "type": "bool"
        },
        {
          "name": "hasVoted",
          "type": "bool"
        },
        {
          "name": "votedCandidateId",
          "type": "uint256"
        }
      ],
      "payable": false,
      "stateMutability": "view",
      "type": "function"
    },
    {
      "constant": true,
      "inputs": [],
      "name": "admin",
      "outputs": [
        {
          "name": "",
          "type": "address"
        }
      ],
      "payable": false,
      "stateMutability": "view",
      "type": "function"
    },
    {
      "inputs": [],
      "payable": false,
      "stateMutability": "nonpayable",
      "type": "constructor"
    },
    {
      "anonymous": false,
      "inputs": [
        {
          "indexed": false,
          "name": "voterAddress",
          "type": "address"
        }
      ],
      "name": "VoterRegisteredEvent",
      "type": "event"
    },
    {
      "anonymous": false,
      "inputs": [],
      "name": "CandidatesRegistrationStartedEvent",
      "type": "event"
    },
    {
      "anonymous": false,
      "inputs": [],
      "name": "CandidatesRegistrationEndedEvent",
      "type": "event"
    },
    {
      "anonymous": false,
      "inputs": [
        {
          "indexed": false,
          "name": "candidateId",
          "type": "uint256"
        }
      ],
      "name": "CandidateRegisteredEvent",
      "type": "event"
    },
    {
      "anonymous": false,
      "inputs": [],
      "name": "VotingSessionStartedEvent",
      "type": "event"
    },
    {
      "anonymous": false,
      "inputs": [],
      "name": "VotingSessionEndedEvent",
      "type": "event"
    },
    {
      "anonymous": false,
      "inputs": [
        {
          "indexed": false,
          "name": "voter",
          "type": "address"
        },
        {
          "indexed": false,
          "name": "candidateId",
          "type": "uint256"
        }
      ],
      "name": "VotedEvent",
      "type": "event"
    },
    {
      "anonymous": false,
      "inputs": [],
      "name": "VotesTalliedEvent",
      "type": "event"
    },
    {
      "anonymous": false,
      "inputs": [
        {
          "indexed": false,
          "name": "previousStatus",
          "type": "uint8"
        },
        {
          "indexed": false,
          "name": "newStatus",
          "type": "uint8"
        }
      ],
      "name": "WorkflowStatusChangeEvent",
      "type": "event"
    },
    {
      "constant": false,
      "inputs": [
        {
          "name": "_voterAddress",
          "type": "address"
        }
      ],
      "name": "registerVoter",
      "outputs": [],
      "payable": false,
      "stateMutability": "nonpayable",
      "type": "function"
    },
    {
      "constant": false,
      "inputs": [],
      "name": "startCandidatesRegistration",
      "outputs": [],
      "payable": false,
      "stateMutability": "nonpayable",
      "type": "function"
    },
    {
      "constant": false,
      "inputs": [],
      "name": "endCandidatesRegistration",
      "outputs": [],
      "payable": false,
      "stateMutability": "nonpayable",
      "type": "function"
    },
    {
      "constant": false,
      "inputs": [
        {
          "name": "candidateDescription",
          "type": "string"
        }
      ],
      "name": "registerCandidate",
      "outputs": [],
      "payable": false,
      "stateMutability": "nonpayable",
      "type": "function"
    },
    {
      "constant": true,
      "inputs": [],
      "name": "getCandidatesNumber",
      "outputs": [
        {
          "name": "",
          "type": "uint256"
        }
      ],
      "payable": false,
      "stateMutability": "view",
      "type": "function"
    },
    {
      "constant": true,
      "inputs": [
        {
          "name": "index",
          "type": "uint256"
        }
      ],
      "name": "getCandidateDescription",
      "outputs": [
        {
          "name": "",
          "type": "string"
        }
      ],
      "payable": false,
      "stateMutability": "view",
      "type": "function"
    },
    {
      "constant": false,
      "inputs": [],
      "name": "startVotingSession",
      "outputs": [],
      "payable": false,
      "stateMutability": "nonpayable",
      "type": "function"
    },
    {
      "constant": false,
      "inputs": [],
      "name": "endVotingSession",
      "outputs": [],
      "payable": false,
      "stateMutability": "nonpayable",
      "type": "function"
    },
    {
      "constant": false,
      "inputs": [
        {
          "name": "candidateId",
          "type": "uint256"
        }
      ],
      "name": "vote",
      "outputs": [],
      "payable": false,
      "stateMutability": "nonpayable",
      "type": "function"
    },
    {
      "constant": false,
      "inputs": [],
      "name": "tallyVotes",
      "outputs": [],
      "payable": false,
      "stateMutability": "nonpayable",
      "type": "function"
    },
    {
      "constant": true,
      "inputs": [],
      "name": "getWinningCandidateId",
      "outputs": [
        {
          "name": "",
          "type": "uint256"
        }
      ],
      "payable": false,
      "stateMutability": "view",
      "type": "function"
    },
    {
      "constant": true,
      "inputs": [],
      "name": "getWinningCadidateDescription",
      "outputs": [
        {
          "name": "",
          "type": "string"
        }
      ],
      "payable": false,
      "stateMutability": "view",
      "type": "function"
    },
    {
      "constant": true,
      "inputs": [],
      "name": "getWinningCandidateVoteCounts",
      "outputs": [
        {
          "name": "",
          "type": "uint256"
        }
      ],
      "payable": false,
      "stateMutability": "view",
      "type": "function"
    },
    {
      "constant": true,
      "inputs": [
        {
          "name": "_voterAddress",
          "type": "address"
        }
      ],
      "name": "isRegisteredVoter",
      "outputs": [
        {
          "name": "",
          "type": "bool"
        }
      ],
      "payable": false,
      "stateMutability": "view",
      "type": "function"
    },
    {
      "constant": true,
      "inputs": [
        {
          "name": "_address",
          "type": "address"
        }
      ],
      "name": "isAdmin",
      "outputs": [
        {
          "name": "",
          "type": "bool"
        }
      ],
      "payable": false,
      "stateMutability": "view",
      "type": "function"
    },
    {
      "constant": true,
      "inputs": [],
      "name": "getWorkflowStatus",
      "outputs": [
        {
          "name": "",
          "type": "uint8"
        }
      ],
      "payable": false,
      "stateMutability": "view",
      "type": "function"
    }
  ],
  "bytecode": "0x608060405234801561001057600080fd5b5033600060016101000a81548173ffffffffffffffffffffffffffffffffffffffff021916908373ffffffffffffffffffffffffffffffffffffffff16021790555060008060006101000a81548160ff0219169083600581111561007057fe5b021790555061255e806100846000396000f3fe608060405260043610610112576000357c0100000000000000000000000000000000000000000000000000000000900463ffffffff1680630121b93f1461011757806324d7806c146101525780633477ee2e146101bb578063378a21781461027657806338db6dd31461028d5780636c5feb03146102de57806383c842c51461036e5780639eb88db614610399578063a1edffa214610461578063a3ec138d1461049a578063a7bfab1614610515578063b15770f41461052c578063bd0c392814610543578063da36cffe1461056e578063ee74c678146105d7578063efdfe6f8146105ee578063f75d64a6146106a2578063f851a440146106db578063f8f6512714610732578063ffceb1861461075d575b600080fd5b34801561012357600080fd5b506101506004803603602081101561013a57600080fd5b8101908080359060200190929190505050610774565b005b34801561015e57600080fd5b506101a16004803603602081101561017557600080fd5b81019080803573ffffffffffffffffffffffffffffffffffffffff169060200190929190505050610b23565b604051808215151515815260200191505060405180910390f35b3480156101c757600080fd5b506101f4600480360360208110156101de57600080fd5b8101908080359060200190929190505050610b7c565b6040518080602001838152602001828103825284818151815260200191508051906020019080838360005b8381101561023a57808201518184015260208101905061021f565b50505050905090810190601f1680156102675780820380516001836020036101000a031916815260200191505b50935050505060405180910390f35b34801561028257600080fd5b5061028b610c47565b005b34801561029957600080fd5b506102dc600480360360208110156102b057600080fd5b81019080803573ffffffffffffffffffffffffffffffffffffffff169060200190929190505050610f58565b005b3480156102ea57600080fd5b506102f3611353565b6040518080602001828103825283818151815260200191508051906020019080838360005b83811015610333578082015181840152602081019050610318565b50505050905090810190601f1680156103605780820380516001836020036101000a031916815260200191505b509250505060405180910390f35b34801561037a57600080fd5b506103836114d6565b6040518082815260200191505060405180910390f35b3480156103a557600080fd5b5061045f600480360360208110156103bc57600080fd5b81019080803590602001906401000000008111156103d957600080fd5b8201836020820111156103eb57600080fd5b8035906020019184600183028401116401000000008311171561040d57600080fd5b91908080601f016020809104026020016040519081016040528093929190818152602001838380828437600081840152601f19601f8201169050808301925050505050505091929192905050506115a1565b005b34801561046d57600080fd5b506104766117fc565b6040518082600581111561048657fe5b60ff16815260200191505060405180910390f35b3480156104a657600080fd5b506104e9600480360360208110156104bd57600080fd5b81019080803573ffffffffffffffffffffffffffffffffffffffff16906020019092919050505061180e565b604051808415151515815260200183151515158152602001828152602001935050505060405180910390f35b34801561052157600080fd5b5061052a611852565b005b34801561053857600080fd5b50610541611aba565b005b34801561054f57600080fd5b50610558611d22565b6040518082815260200191505060405180910390f35b34801561057a57600080fd5b506105bd6004803603602081101561059157600080fd5b81019080803573ffffffffffffffffffffffffffffffffffffffff169060200190929190505050611d2f565b604051808215151515815260200191505060405180910390f35b3480156105e357600080fd5b506105ec611d88565b005b3480156105fa57600080fd5b506106276004803603602081101561061157600080fd5b8101908080359060200190929190505050612016565b6040518080602001828103825283818151815260200191508051906020019080838360005b8381101561066757808201518184015260208101905061064c565b50505050905090810190601f1680156106945780820380516001836020036101000a031916815260200191505b509250505060405180910390f35b3480156106ae57600080fd5b506106b76120d8565b604051808260058111156106c757fe5b60ff16815260200191505060405180910390f35b3480156106e757600080fd5b506106f06120ee565b604051808273ffffffffffffffffffffffffffffffffffffffff1673ffffffffffffffffffffffffffffffffffffffff16815260200191505060405180910390f35b34801561073e57600080fd5b50610747612114565b6040518082815260200191505060405180910390f35b34801561076957600080fd5b506107726121ff565b005b600160003373ffffffffffffffffffffffffffffffffffffffff1673ffffffffffffffffffffffffffffffffffffffff16815260200190815260200160002060000160009054906101000a900460ff16151561085e576040517f08c379a00000000000000000000000000000000000000000000000000000000081526004018080602001828103825260368152602001807f7468652063616c6c6572206f6620746869732066756e6374696f6e206d75737481526020017f2062652061207265676973746572656420766f7465720000000000000000000081525060400191505060405180910390fd5b6003600581111561086b57fe5b6000809054906101000a900460ff16600581111561088557fe5b141515610920576040517f08c379a000000000000000000000000000000000000000000000000000000000815260040180806020018281038252603a8152602001807f746869732066756e6374696f6e2063616e2062652063616c6c6564206f6e6c7981526020017f20647572696e672074686520766f74696e672073657373696f6e00000000000081525060400191505060405180910390fd5b600160003373ffffffffffffffffffffffffffffffffffffffff1673ffffffffffffffffffffffffffffffffffffffff16815260200190815260200160002060000160019054906101000a900460ff161515156109e5576040517f08c379a000000000000000000000000000000000000000000000000000000000815260040180806020018281038252601c8152602001807f7468652063616c6c65722068617320616c726561647920766f7465640000000081525060200191505060405180910390fd5b60018060003373ffffffffffffffffffffffffffffffffffffffff1673ffffffffffffffffffffffffffffffffffffffff16815260200190815260200160002060000160016101000a81548160ff02191690831515021790555080600160003373ffffffffffffffffffffffffffffffffffffffff1673ffffffffffffffffffffffffffffffffffffffff168152602001908152602001600020600101819055506001600282815481101515610a9757fe5b9060005260206000209060020201600101600082825401925050819055507f0902475a854b82199b4f5d6b81327ec4c4ec077ce0356a106ddc2748c5285ed33382604051808373ffffffffffffffffffffffffffffffffffffffff1673ffffffffffffffffffffffffffffffffffffffff1681526020018281526020019250505060405180910390a150565b60008060019054906101000a900473ffffffffffffffffffffffffffffffffffffffff1673ffffffffffffffffffffffffffffffffffffffff168273ffffffffffffffffffffffffffffffffffffffff16149050919050565b600281815481101515610b8b57fe5b9060005260206000209060020201600091509050806000018054600181600116156101000203166002900480601f016020809104026020016040519081016040528092919081815260200182805460018160011615610100020316600290048015610c375780601f10610c0c57610100808354040283529160200191610c37565b820191906000526020600020905b815481529060010190602001808311610c1a57829003601f168201915b5050505050908060010154905082565b600060019054906101000a900473ffffffffffffffffffffffffffffffffffffffff1673ffffffffffffffffffffffffffffffffffffffff163373ffffffffffffffffffffffffffffffffffffffff16141515610d32576040517f08c379a00000000000000000000000000000000000000000000000000000000081526004018080602001828103825260358152602001807f7468652063616c6c6572206f6620746869732066756e6374696f6e206d75737481526020017f206265207468652061646d696e6973747261746f72000000000000000000000081525060400191505060405180910390fd5b60046005811115610d3f57fe5b6000809054906101000a900460ff166005811115610d5957fe5b141515610e1a576040517f08c379a00000000000000000000000000000000000000000000000000000000081526004018080602001828103825260438152602001807f746869732066756e6374696f6e2063616e2062652063616c6c6564206f6e6c7981526020017f2061667465722074686520766f74696e672073657373696f6e2068617320656e81526020017f646564000000000000000000000000000000000000000000000000000000000081525060600191505060405180910390fd5b6000809050600080905060008090505b600280549050811015610e935782600282815481101515610e4757fe5b9060005260206000209060020201600101541115610e8657600281815481101515610e6e57fe5b90600052602060002090600202016001015492508091505b8080600101915050610e2a565b508060038190555060056000806101000a81548160ff02191690836005811115610eb957fe5b02179055507fa1f82a14ea162408785ef8969f7cf08b2bb72b081f8d4e2eda49846e52f439c660405160405180910390a17f9474022b1c97b70d3479aafe8672c447d1837ad99ae1f735eced168a65252d1660046000809054906101000a900460ff1660405180836005811115610f2c57fe5b60ff168152602001826005811115610f4057fe5b60ff1681526020019250505060405180910390a15050565b600060019054906101000a900473ffffffffffffffffffffffffffffffffffffffff1673ffffffffffffffffffffffffffffffffffffffff163373ffffffffffffffffffffffffffffffffffffffff16141515611043576040517f08c379a00000000000000000000000000000000000000000000000000000000081526004018080602001828103825260358152602001807f7468652063616c6c6572206f6620746869732066756e6374696f6e206d75737481526020017f206265207468652061646d696e6973747261746f72000000000000000000000081525060400191505060405180910390fd5b6000600581111561105057fe5b6000809054906101000a900460ff16600581111561106a57fe5b14151561112b576040517f08c379a000000000000000000000000000000000000000000000000000000000815260040180806020018281038252604b8152602001807f746869732066756e6374696f6e2063616e2062652063616c6c6564206f6e6c7981526020017f206265666f72652063616e6469646174657320726567697374726174696f6e2081526020017f686173207374617274656400000000000000000000000000000000000000000081525060600191505060405180910390fd5b600160008273ffffffffffffffffffffffffffffffffffffffff1673ffffffffffffffffffffffffffffffffffffffff16815260200190815260200160002060000160009054906101000a900460ff161515156111f0576040517f08c379a000000000000000000000000000000000000000000000000000000000815260040180806020018281038252601b8152602001807f766f74657220697320616c72656164792072656769737465726564000000000081525060200191505060405180910390fd5b60018060008373ffffffffffffffffffffffffffffffffffffffff1673ffffffffffffffffffffffffffffffffffffffff16815260200190815260200160002060000160006101000a81548160ff0219169083151502179055506000600160008373ffffffffffffffffffffffffffffffffffffffff1673ffffffffffffffffffffffffffffffffffffffff16815260200190815260200160002060000160016101000a81548160ff0219169083151502179055506000600160008373ffffffffffffffffffffffffffffffffffffffff1673ffffffffffffffffffffffffffffffffffffffff168152602001908152602001600020600101819055507f42b360c89ba65a59ac7fec024a7bbb2c21d84b5abe5b5178ba0d7e34653a813081604051808273ffffffffffffffffffffffffffffffffffffffff1673ffffffffffffffffffffffffffffffffffffffff16815260200191505060405180910390a150565b606060058081111561136157fe5b6000809054906101000a900460ff16600581111561137b57fe5b141515611416576040517f08c379a000000000000000000000000000000000000000000000000000000000815260040180806020018281038252603e8152602001807f746869732066756e6374696f6e2063616e2062652063616c6c6564206f6e6c7981526020017f20616674657220766f7465732068617665206265656e2074616c6c696564000081525060400191505060405180910390fd5b600260035481548110151561142757fe5b90600052602060002090600202016000018054600181600116156101000203166002900480601f0160208091040260200160405190810160405280929190818152602001828054600181600116156101000203166002900480156114cc5780601f106114a1576101008083540402835291602001916114cc565b820191906000526020600020905b8154815290600101906020018083116114af57829003601f168201915b5050505050905090565b60006005808111156114e457fe5b6000809054906101000a900460ff1660058111156114fe57fe5b141515611599576040517f08c379a000000000000000000000000000000000000000000000000000000000815260040180806020018281038252603e8152602001807f746869732066756e6374696f6e2063616e2062652063616c6c6564206f6e6c7981526020017f20616674657220766f7465732068617665206265656e2074616c6c696564000081525060400191505060405180910390fd5b600354905090565b600160003373ffffffffffffffffffffffffffffffffffffffff1673ffffffffffffffffffffffffffffffffffffffff16815260200190815260200160002060000160009054906101000a900460ff16151561168b576040517f08c379a00000000000000000000000000000000000000000000000000000000081526004018080602001828103825260368152602001807f7468652063616c6c6572206f6620746869732066756e6374696f6e206d75737481526020017f2062652061207265676973746572656420766f7465720000000000000000000081525060400191505060405180910390fd5b6001600581111561169857fe5b6000809054906101000a900460ff1660058111156116b257fe5b14151561174d576040517f08c379a000000000000000000000000000000000000000000000000000000000815260040180806020018281038252603f8152602001807f746869732066756e6374696f6e2063616e2062652063616c6c6564206f6e6c7981526020017f20647572696e672063616e6469646174657320726567697374726174696f6e0081525060400191505060405180910390fd5b6002604080519081016040528083815260200160008152509080600181540180825580915050906001820390600052602060002090600202016000909192909190915060008201518160000190805190602001906117ac92919061248d565b50602082015181600101555050507ff23ce42eb3d2878c26ab610ef7d3edf80e07cfb6568d4028550637f27c73db416001600280549050036040518082815260200191505060405180910390a150565b6000809054906101000a900460ff1681565b60016020528060005260406000206000915090508060000160009054906101000a900460ff16908060000160019054906101000a900460ff16908060010154905083565b600060019054906101000a900473ffffffffffffffffffffffffffffffffffffffff1673ffffffffffffffffffffffffffffffffffffffff163373ffffffffffffffffffffffffffffffffffffffff1614151561193d576040517f08c379a00000000000000000000000000000000000000000000000000000000081526004018080602001828103825260358152602001807f7468652063616c6c6572206f6620746869732066756e6374696f6e206d75737481526020017f206265207468652061646d696e6973747261746f72000000000000000000000081525060400191505060405180910390fd5b6003600581111561194a57fe5b6000809054906101000a900460ff16600581111561196457fe5b1415156119ff576040517f08c379a000000000000000000000000000000000000000000000000000000000815260040180806020018281038252603a8152602001807f746869732066756e6374696f6e2063616e2062652063616c6c6564206f6e6c7981526020017f20647572696e672074686520766f74696e672073657373696f6e00000000000081525060400191505060405180910390fd5b60046000806101000a81548160ff02191690836005811115611a1d57fe5b02179055507f86a7e3ed2917a2b5f100160b6e558c8e7ae6e4fb8f2673d860d3f11b4f345e7260405160405180910390a17f9474022b1c97b70d3479aafe8672c447d1837ad99ae1f735eced168a65252d1660036000809054906101000a900460ff1660405180836005811115611a9057fe5b60ff168152602001826005811115611aa457fe5b60ff1681526020019250505060405180910390a1565b600060019054906101000a900473ffffffffffffffffffffffffffffffffffffffff1673ffffffffffffffffffffffffffffffffffffffff163373ffffffffffffffffffffffffffffffffffffffff16141515611ba5576040517f08c379a00000000000000000000000000000000000000000000000000000000081526004018080602001828103825260358152602001807f7468652063616c6c6572206f6620746869732066756e6374696f6e206d75737481526020017f206265207468652061646d696e6973747261746f72000000000000000000000081525060400191505060405180910390fd5b60016005811115611bb257fe5b6000809054906101000a900460ff166005811115611bcc57fe5b141515611c67576040517f08c379a000000000000000000000000000000000000000000000000000000000815260040180806020018281038252603f8152602001807f746869732066756e6374696f6e2063616e2062652063616c6c6564206f6e6c7981526020017f20647572696e672063616e6469646174657320726567697374726174696f6e0081525060400191505060405180910390fd5b60026000806101000a81548160ff02191690836005811115611c8557fe5b02179055507fcce7f334689c8645e54db147c4b9c8375fdd925e9d5387c26cb9268dc90bb72460405160405180910390a17f9474022b1c97b70d3479aafe8672c447d1837ad99ae1f735eced168a65252d1660016000809054906101000a900460ff1660405180836005811115611cf857fe5b60ff168152602001826005811115611d0c57fe5b60ff1681526020019250505060405180910390a1565b6000600280549050905090565b6000600160008373ffffffffffffffffffffffffffffffffffffffff1673ffffffffffffffffffffffffffffffffffffffff16815260200190815260200160002060000160009054906101000a900460ff169050919050565b600060019054906101000a900473ffffffffffffffffffffffffffffffffffffffff1673ffffffffffffffffffffffffffffffffffffffff163373ffffffffffffffffffffffffffffffffffffffff16141515611e73576040517f08c379a00000000000000000000000000000000000000000000000000000000081526004018080602001828103825260358152602001807f7468652063616c6c6572206f6620746869732066756e6374696f6e206d75737481526020017f206265207468652061646d696e6973747261746f72000000000000000000000081525060400191505060405180910390fd5b60026005811115611e8057fe5b6000809054906101000a900460ff166005811115611e9a57fe5b141515611f5b576040517f08c379a00000000000000000000000000000000000000000000000000000000081526004018080602001828103825260488152602001807f746869732066756e6374696f6e2063616e2062652063616c6c6564206f6e6c7981526020017f2061667465722063616e6469646174657320726567697374726174696f6e206881526020017f617320656e64656400000000000000000000000000000000000000000000000081525060600191505060405180910390fd5b60036000806101000a81548160ff02191690836005811115611f7957fe5b02179055507ffca8377aff3a08252b769c58e6769a534922eabaaf9952691ea9cfcaed41fbd860405160405180910390a17f9474022b1c97b70d3479aafe8672c447d1837ad99ae1f735eced168a65252d1660026000809054906101000a900460ff1660405180836005811115611fec57fe5b60ff16815260200182600581111561200057fe5b60ff1681526020019250505060405180910390a1565b606060028281548110151561202757fe5b90600052602060002090600202016000018054600181600116156101000203166002900480601f0160208091040260200160405190810160405280929190818152602001828054600181600116156101000203166002900480156120cc5780601f106120a1576101008083540402835291602001916120cc565b820191906000526020600020905b8154815290600101906020018083116120af57829003601f168201915b50505050509050919050565b60008060009054906101000a900460ff16905090565b600060019054906101000a900473ffffffffffffffffffffffffffffffffffffffff1681565b600060058081111561212257fe5b6000809054906101000a900460ff16600581111561213c57fe5b1415156121d7576040517f08c379a000000000000000000000000000000000000000000000000000000000815260040180806020018281038252603e8152602001807f746869732066756e6374696f6e2063616e2062652063616c6c6564206f6e6c7981526020017f20616674657220766f7465732068617665206265656e2074616c6c696564000081525060400191505060405180910390fd5b60026003548154811015156121e857fe5b906000526020600020906002020160010154905090565b600060019054906101000a900473ffffffffffffffffffffffffffffffffffffffff1673ffffffffffffffffffffffffffffffffffffffff163373ffffffffffffffffffffffffffffffffffffffff161415156122ea576040517f08c379a00000000000000000000000000000000000000000000000000000000081526004018080602001828103825260358152602001807f7468652063616c6c6572206f6620746869732066756e6374696f6e206d75737481526020017f206265207468652061646d696e6973747261746f72000000000000000000000081525060400191505060405180910390fd5b600060058111156122f757fe5b6000809054906101000a900460ff16600581111561231157fe5b1415156123d2576040517f08c379a000000000000000000000000000000000000000000000000000000000815260040180806020018281038252604b8152602001807f746869732066756e6374696f6e2063616e2062652063616c6c6564206f6e6c7981526020017f206265666f72652063616e6469646174657320726567697374726174696f6e2081526020017f686173207374617274656400000000000000000000000000000000000000000081525060600191505060405180910390fd5b60016000806101000a81548160ff021916908360058111156123f057fe5b02179055507fe01aac20ab8df6ac68a99d01775346a4812a94a94d98812320bfe7cc94aa999b60405160405180910390a17f9474022b1c97b70d3479aafe8672c447d1837ad99ae1f735eced168a65252d1660008060009054906101000a900460ff166040518083600581111561246357fe5b60ff16815260200182600581111561247757fe5b60ff1681526020019250505060405180910390a1565b828054600181600116156101000203166002900490600052602060002090601f016020900481019282601f106124ce57805160ff19168380011785556124fc565b828001600101855582156124fc579182015b828111156124fb5782518255916020019190600101906124e0565b5b509050612509919061250d565b5090565b61252f91905b8082111561252b576000816000905550600101612513565b5090565b9056fea165627a7a72305820f765fdd2dd52bdf3f29f598c4a041e547abb67d7bfb020aad565345ab4bb411f0029",
  "source": "pragma solidity ^0.5.0;\n\ncontract Voting {\n    \n    struct Voter {\n        bool isRegistered;\n        bool hasVoted;  \n        uint votedCandidateId;   \n    }\n    \n    struct Candidate {\n        string description;   \n        uint voteCount; \n    }\n    \n    enum WorkflowStatus {\n        RegisteringVoters, \n        CandidatesRegistrationStarted,\n        CandidatesRegistrationEnded,\n        VotingSessionStarted,\n        VotingSessionEnded,\n        VotesTallied\n    }\n\n    // States\n    \n    WorkflowStatus public workflowStatus;\n    address public admin;\n    mapping(address => Voter) public voters;\n    Candidate[] public candidates;\n    uint private winningCandidateId;\n\n    // Modifiers\n    \n    modifier onlyAdmin() {\n       require(msg.sender == admin, \"the caller of this function must be the administrator\");\n       _;\n    }\n    \n    modifier onlyRegisteredVoter() {\n        require(voters[msg.sender].isRegistered, \n           \"the caller of this function must be a registered voter\");\n       _;\n    }\n    \n    modifier onlyDuringVotersRegistration() {\n        require(workflowStatus == WorkflowStatus.RegisteringVoters, \n           \"this function can be called only before candidates registration has started\");\n       _;\n    }\n    \n    modifier onlyDuringCandidatesRegistration() {\n        require(workflowStatus == WorkflowStatus.CandidatesRegistrationStarted, \n           \"this function can be called only during candidates registration\");\n       _;\n    }\n    \n    modifier onlyAfterCandidatesRegistration() {\n        require(workflowStatus == WorkflowStatus.CandidatesRegistrationEnded,  \n           \"this function can be called only after candidates registration has ended\");\n       _;\n    }\n    \n    modifier onlyDuringVotingSession() {\n        require(workflowStatus == WorkflowStatus.VotingSessionStarted, \n           \"this function can be called only during the voting session\");\n       _;\n    }\n    \n    modifier onlyAfterVotingSession() {\n        require(workflowStatus == WorkflowStatus.VotingSessionEnded,  \n           \"this function can be called only after the voting session has ended\");\n       _;\n    }\n    \n    modifier onlyAfterVotesTallied() {\n        require(workflowStatus == WorkflowStatus.VotesTallied,  \n           \"this function can be called only after votes have been tallied\");\n       _;\n    }\n\n    // Events\n    \n\tevent VoterRegisteredEvent (\n\t\taddress voterAddress\n\t); \n\t\n\tevent CandidatesRegistrationStartedEvent ();\n\t\n\tevent CandidatesRegistrationEndedEvent ();\n\t\n\tevent CandidateRegisteredEvent(\n\t    uint candidateId\n\t);\n\t\n\tevent VotingSessionStartedEvent ();\n\t\n\tevent VotingSessionEndedEvent ();\n\t\n\tevent VotedEvent (\n\t    address voter,\n\t    uint candidateId\n\t);\n\t\n\tevent VotesTalliedEvent ();\n\t\n\tevent WorkflowStatusChangeEvent (\n        WorkflowStatus previousStatus,\n        WorkflowStatus newStatus\n    );\n    \n    constructor() public {\n        admin = msg.sender;\n        workflowStatus = WorkflowStatus.RegisteringVoters;\n    }\n\n    // Functions\n    \n    function registerVoter(address _voterAddress) \n        public onlyAdmin onlyDuringVotersRegistration {\n        \n        require(!voters[_voterAddress].isRegistered, \"voter is already registered\");\n        \n        voters[_voterAddress].isRegistered = true;\n        voters[_voterAddress].hasVoted = false;\n        voters[_voterAddress].votedCandidateId = 0;\n        \n        emit VoterRegisteredEvent(_voterAddress);\n    }\n    \n    function startCandidatesRegistration() \n        public onlyAdmin onlyDuringVotersRegistration {\n        workflowStatus = WorkflowStatus.CandidatesRegistrationStarted;\n        \n        emit CandidatesRegistrationStartedEvent();\n        emit WorkflowStatusChangeEvent(\n            WorkflowStatus.RegisteringVoters, workflowStatus);\n    }\n    \n    function endCandidatesRegistration() \n        public onlyAdmin onlyDuringCandidatesRegistration {\n        workflowStatus = WorkflowStatus.CandidatesRegistrationEnded;\n        \n        emit CandidatesRegistrationEndedEvent();\n        emit WorkflowStatusChangeEvent(\n            WorkflowStatus.CandidatesRegistrationStarted, workflowStatus);\n    }\n    \n    function registerCandidate(string memory candidateDescription) \n        public onlyRegisteredVoter onlyDuringCandidatesRegistration {\n        candidates.push(Candidate({\n            description: candidateDescription,\n            voteCount: 0\n        }));\n        \n        emit CandidateRegisteredEvent(candidates.length - 1);\n    }\n    \n\tfunction getCandidatesNumber() public view\n\t    returns (uint) {\n\t    return candidates.length;\n\t}\n\t\n\tfunction getCandidateDescription(uint index) public view \n\t    returns (string memory) {\n\t    return candidates[index].description;\n\t}    \n\n    function startVotingSession() \n        public onlyAdmin onlyAfterCandidatesRegistration {\n        workflowStatus = WorkflowStatus.VotingSessionStarted;\n        \n        emit VotingSessionStartedEvent();\n        emit WorkflowStatusChangeEvent(\n            WorkflowStatus.CandidatesRegistrationEnded, workflowStatus);\n    }\n    \n    function endVotingSession() \n        public onlyAdmin onlyDuringVotingSession {\n        workflowStatus = WorkflowStatus.VotingSessionEnded;\n        \n        emit VotingSessionEndedEvent();\n        emit WorkflowStatusChangeEvent(\n            WorkflowStatus.VotingSessionStarted, workflowStatus);        \n    }\n    \n    function vote(uint candidateId) onlyRegisteredVoter onlyDuringVotingSession public {\n        require(!voters[msg.sender].hasVoted, \"the caller has already voted\");\n        \n        voters[msg.sender].hasVoted = true;\n        voters[msg.sender].votedCandidateId = candidateId;\n        \n        candidates[candidateId].voteCount += 1;\n        \n        emit VotedEvent(msg.sender, candidateId);\n    }\n    \n    function tallyVotes() onlyAdmin onlyAfterVotingSession public {\n        uint winningVoteCount = 0;\n        uint winningCandidateIndex = 0;\n        \n        for (uint i = 0; i < candidates.length; i++) {\n            if (candidates[i].voteCount > winningVoteCount) {\n                winningVoteCount = candidates[i].voteCount;\n                winningCandidateIndex = i;\n            }\n        }\n        \n        winningCandidateId = winningCandidateIndex;\n        workflowStatus = WorkflowStatus.VotesTallied;\n        \n        emit VotesTalliedEvent();\n        emit WorkflowStatusChangeEvent(\n            WorkflowStatus.VotingSessionEnded, workflowStatus);     \n    }\n    \n    function getWinningCandidateId() onlyAfterVotesTallied public view\n       returns (uint) {\n        return winningCandidateId;\n    }\n    \n    function getWinningCadidateDescription() onlyAfterVotesTallied public view\n       returns (string memory) {\n        return candidates[winningCandidateId].description;\n    }  \n    \n    function getWinningCandidateVoteCounts() onlyAfterVotesTallied public view\n       returns (uint) {\n        return candidates[winningCandidateId].voteCount;\n    }   \n    \n    function isRegisteredVoter(address _voterAddress) public view\n\t   returns (bool) {\n\t   return voters[_voterAddress].isRegistered;\n\t}\n\t\n\tfunction isAdmin(address _address) public view \n\t    returns (bool) {\n\t    return _address == admin;\n\t}\t\n\t\n\tfunction getWorkflowStatus() public view\n\t    returns (WorkflowStatus) {\n\t    return workflowStatus;       \n\t}\n}",
  "sourcePath": "/Users/dinance/Documents/Transfer/Study/coding/Blockchain/consensysProject/Voting/contracts/Voting.sol",
  "compiler": {
    "name": "solc",
    "version": "0.5.0+commit.1d4f565a.Emscripten.clang"
  },
  "schemaVersion": "3.0.9",
  "updatedAt": "2019-07-31T22:55:57.399Z",
  "devdoc": {
    "methods": {}
  },
  "userdoc": {
    "methods": {}
  }
}